{
    "_format": "hh-sol-artifact-1",
    "contractName": "Charity",
    "sourceName": "contracts/Charity.sol",
    "abi": [
        {
            "inputs": [],
            "stateMutability": "payable",
            "type": "constructor"
        },
        {
            "inputs": [],
            "name": "getBalance",
            "outputs": [
                {
                    "internalType": "uint256",
                    "name": "",
                    "type": "uint256"
                }
            ],
            "stateMutability": "view",
            "type": "function"
        },
        {
            "inputs": [],
            "name": "getDonations",
            "outputs": [
                {
                    "components": [
                        {
                            "internalType": "address",
                            "name": "supporter",
                            "type": "address"
                        },
                        {
                            "internalType": "string",
                            "name": "message",
                            "type": "string"
                        },
                        {
                            "internalType": "string",
                            "name": "name",
                            "type": "string"
                        },
                        {
                            "internalType": "uint256",
                            "name": "amount",
                            "type": "uint256"
                        },
                        {
                            "internalType": "uint256",
                            "name": "timestamp",
                            "type": "uint256"
                        }
                    ],
                    "internalType": "struct Charity.Donation[]",
                    "name": "",
                    "type": "tuple[]"
                }
            ],
            "stateMutability": "view",
            "type": "function"
        },
        {
            "inputs": [
                {
                    "internalType": "string",
                    "name": "_message",
                    "type": "string"
                },
                {
                    "internalType": "string",
                    "name": "_name",
                    "type": "string"
                }
            ],
            "name": "makeDonation",
            "outputs": [],
            "stateMutability": "payable",
            "type": "function"
        },
        {
            "inputs": [],
            "name": "owner",
            "outputs": [
                {
                    "internalType": "address payable",
                    "name": "",
                    "type": "address"
                }
            ],
            "stateMutability": "view",
            "type": "function"
        },
        {
            "inputs": [],
            "name": "withdrawFunds",
            "outputs": [],
            "stateMutability": "nonpayable",
            "type": "function"
        }
    ],
    "bytecode": "0x60806040526200004f6040518060400160405280601e81526020017f496e697469616c697a696e6720536d61727420436f6e74726163742e2e2e00008152506200009660201b620006171760201c565b33600160006101000a81548173ffffffffffffffffffffffffffffffffffffffff021916908373ffffffffffffffffffffffffffffffffffffffff16021790555062000220565b6200013681604051602401620000ad9190620001fc565b6040516020818303038152906040527f41304fac000000000000000000000000000000000000000000000000000000007bffffffffffffffffffffffffffffffffffffffffffffffffffffffff19166020820180517bffffffffffffffffffffffffffffffffffffffffffffffffffffffff83818316178352505050506200013960201b60201c565b50565b60008151905060006a636f6e736f6c652e6c6f679050602083016000808483855afa5050505050565b600081519050919050565b600082825260208201905092915050565b60005b838110156200019e57808201518184015260208101905062000181565b60008484015250505050565b6000601f19601f8301169050919050565b6000620001c88262000162565b620001d481856200016d565b9350620001e68185602086016200017e565b620001f181620001aa565b840191505092915050565b60006020820190508181036000830152620002188184620001bb565b905092915050565b61113380620002306000396000f3fe60806040526004361061004a5760003560e01c806312065fe01461004f57806324600fc31461007a5780638da5cb5b14610091578063c40d1a7b146100bc578063e25f8416146100d8575b600080fd5b34801561005b57600080fd5b50610064610103565b60405161007191906106f2565b60405180910390f35b34801561008657600080fd5b5061008f61010b565b005b34801561009d57600080fd5b506100a66102b5565b6040516100b3919061074e565b60405180910390f35b6100d660048036038101906100d191906108c3565b6102db565b005b3480156100e457600080fd5b506100ed61042a565b6040516100fa9190610b29565b60405180910390f35b600047905090565b3373ffffffffffffffffffffffffffffffffffffffff16600160009054906101000a900473ffffffffffffffffffffffffffffffffffffffff1673ffffffffffffffffffffffffffffffffffffffff161461019b576040517f08c379a000000000000000000000000000000000000000000000000000000000815260040161019290610bce565b60405180910390fd5b6000479050600081116101e3576040517f08c379a00000000000000000000000000000000000000000000000000000000081526004016101da90610c60565b60405180910390fd5b6000600160009054906101000a900473ffffffffffffffffffffffffffffffffffffffff1673ffffffffffffffffffffffffffffffffffffffff168260405161022b90610cb1565b60006040518083038185875af1925050503d8060008114610268576040519150601f19603f3d011682016040523d82523d6000602084013e61026d565b606091505b50509050806102b1576040517f08c379a00000000000000000000000000000000000000000000000000000000081526004016102a890610d12565b60405180910390fd5b5050565b600160009054906101000a900473ffffffffffffffffffffffffffffffffffffffff1681565b343373ffffffffffffffffffffffffffffffffffffffff16311015610335576040517f08c379a000000000000000000000000000000000000000000000000000000000815260040161032c90610da4565b60405180910390fd5b60006040518060a001604052803373ffffffffffffffffffffffffffffffffffffffff16815260200184815260200183815260200134815260200142815250908060018154018082558091505060019003906000526020600020906005020160009091909190915060008201518160000160006101000a81548173ffffffffffffffffffffffffffffffffffffffff021916908373ffffffffffffffffffffffffffffffffffffffff16021790555060208201518160010190816103f99190610fd0565b50604082015181600201908161040f9190610fd0565b50606082015181600301556080820151816004015550505050565b60606000805480602002602001604051908101604052809291908181526020016000905b8282101561060e57838290600052602060002090600502016040518060a00160405290816000820160009054906101000a900473ffffffffffffffffffffffffffffffffffffffff1673ffffffffffffffffffffffffffffffffffffffff1673ffffffffffffffffffffffffffffffffffffffff1681526020016001820180546104d790610df3565b80601f016020809104026020016040519081016040528092919081815260200182805461050390610df3565b80156105505780601f1061052557610100808354040283529160200191610550565b820191906000526020600020905b81548152906001019060200180831161053357829003601f168201915b5050505050815260200160028201805461056990610df3565b80601f016020809104026020016040519081016040528092919081815260200182805461059590610df3565b80156105e25780601f106105b7576101008083540402835291602001916105e2565b820191906000526020600020905b8154815290600101906020018083116105c557829003601f168201915b50505050508152602001600382015481526020016004820154815250508152602001906001019061044e565b50505050905090565b6106ad8160405160240161062b91906110db565b6040516020818303038152906040527f41304fac000000000000000000000000000000000000000000000000000000007bffffffffffffffffffffffffffffffffffffffffffffffffffffffff19166020820180517bffffffffffffffffffffffffffffffffffffffffffffffffffffffff83818316178352505050506106b0565b50565b60008151905060006a636f6e736f6c652e6c6f679050602083016000808483855afa5050505050565b6000819050919050565b6106ec816106d9565b82525050565b600060208201905061070760008301846106e3565b92915050565b600073ffffffffffffffffffffffffffffffffffffffff82169050919050565b60006107388261070d565b9050919050565b6107488161072d565b82525050565b6000602082019050610763600083018461073f565b92915050565b6000604051905090565b600080fd5b600080fd5b600080fd5b600080fd5b6000601f19601f8301169050919050565b7f4e487b7100000000000000000000000000000000000000000000000000000000600052604160045260246000fd5b6107d082610787565b810181811067ffffffffffffffff821117156107ef576107ee610798565b5b80604052505050565b6000610802610769565b905061080e82826107c7565b919050565b600067ffffffffffffffff82111561082e5761082d610798565b5b61083782610787565b9050602081019050919050565b82818337600083830152505050565b600061086661086184610813565b6107f8565b90508281526020810184848401111561088257610881610782565b5b61088d848285610844565b509392505050565b600082601f8301126108aa576108a961077d565b5b81356108ba848260208601610853565b91505092915050565b600080604083850312156108da576108d9610773565b5b600083013567ffffffffffffffff8111156108f8576108f7610778565b5b61090485828601610895565b925050602083013567ffffffffffffffff81111561092557610924610778565b5b61093185828601610895565b9150509250929050565b600081519050919050565b600082825260208201905092915050565b6000819050602082019050919050565b60006109728261070d565b9050919050565b61098281610967565b82525050565b600081519050919050565b600082825260208201905092915050565b60005b838110156109c25780820151818401526020810190506109a7565b60008484015250505050565b60006109d982610988565b6109e38185610993565b93506109f38185602086016109a4565b6109fc81610787565b840191505092915050565b610a10816106d9565b82525050565b600060a083016000830151610a2e6000860182610979565b5060208301518482036020860152610a4682826109ce565b91505060408301518482036040860152610a6082826109ce565b9150506060830151610a756060860182610a07565b506080830151610a886080860182610a07565b508091505092915050565b6000610a9f8383610a16565b905092915050565b6000602082019050919050565b6000610abf8261093b565b610ac98185610946565b935083602082028501610adb85610957565b8060005b85811015610b175784840389528151610af88582610a93565b9450610b0383610aa7565b925060208a01995050600181019050610adf565b50829750879550505050505092915050565b60006020820190508181036000830152610b438184610ab4565b905092915050565b600082825260208201905092915050565b7f43616c6c6572206973206e6f742074686520636f6e7472616374206f776e657260008201527f2e00000000000000000000000000000000000000000000000000000000000000602082015250565b6000610bb8602183610b4b565b9150610bc382610b5c565b604082019050919050565b60006020820190508181036000830152610be781610bab565b9050919050565b7f596f7520646f6e277420686176652073756666696369656e742066756e64732060008201527f746f2077697468647261772e0000000000000000000000000000000000000000602082015250565b6000610c4a602c83610b4b565b9150610c5582610bee565b604082019050919050565b60006020820190508181036000830152610c7981610c3d565b9050919050565b600081905092915050565b50565b6000610c9b600083610c80565b9150610ca682610c8b565b600082019050919050565b6000610cbc82610c8e565b9150819050919050565b7f5769746864726177616c206661696c6564210000000000000000000000000000600082015250565b6000610cfc601283610b4b565b9150610d0782610cc6565b602082019050919050565b60006020820190508181036000830152610d2b81610cef565b9050919050565b7f596f7520646f6e277420686176652073756666696369656e742066756e64732060008201527f746f206d616b65207468697320646f6e6174696f6e2e00000000000000000000602082015250565b6000610d8e603683610b4b565b9150610d9982610d32565b604082019050919050565b60006020820190508181036000830152610dbd81610d81565b9050919050565b7f4e487b7100000000000000000000000000000000000000000000000000000000600052602260045260246000fd5b60006002820490506001821680610e0b57607f821691505b602082108103610e1e57610e1d610dc4565b5b50919050565b60008190508160005260206000209050919050565b60006020601f8301049050919050565b600082821b905092915050565b600060088302610e867fffffffffffffffffffffffffffffffffffffffffffffffffffffffffffffffff82610e49565b610e908683610e49565b95508019841693508086168417925050509392505050565b6000819050919050565b6000610ecd610ec8610ec3846106d9565b610ea8565b6106d9565b9050919050565b6000819050919050565b610ee783610eb2565b610efb610ef382610ed4565b848454610e56565b825550505050565b600090565b610f10610f03565b610f1b818484610ede565b505050565b5b81811015610f3f57610f34600082610f08565b600181019050610f21565b5050565b601f821115610f8457610f5581610e24565b610f5e84610e39565b81016020851015610f6d578190505b610f81610f7985610e39565b830182610f20565b50505b505050565b600082821c905092915050565b6000610fa760001984600802610f89565b1980831691505092915050565b6000610fc08383610f96565b9150826002028217905092915050565b610fd982610988565b67ffffffffffffffff811115610ff257610ff1610798565b5b610ffc8254610df3565b611007828285610f43565b600060209050601f83116001811461103a5760008415611028578287015190505b6110328582610fb4565b86555061109a565b601f19841661104886610e24565b60005b828110156110705784890151825560018201915060208501945060208101905061104b565b8683101561108d5784890151611089601f891682610f96565b8355505b6001600288020188555050505b505050505050565b60006110ad82610988565b6110b78185610b4b565b93506110c78185602086016109a4565b6110d081610787565b840191505092915050565b600060208201905081810360008301526110f581846110a2565b90509291505056fea264697066735822122009af097b60feab7ff2a304bc2cb34c7aeb30bbd3540614685ad8d41f23d150ff64736f6c63430008120033",
    "linkReferences": {},
    "deployedLinkReferences": {}
}